:0400000007EF00F016
:0A00080074822CED08F0E9EF0FF010
:10100000003132333435363738392A3023456E745F
:1010100065722050617373776F72643A0057726F14
:101020006E672050617373776F72640057656C63ED
:101030006F6D6520486F6D650053657474696E67E8
:10104000733A230053657474696E67730062616359
:101050006B3A2A00256900000600F2A832EF08F07A
:1010600034EF08F03DEF08F0F2A239EF08F03BEF63
:1010700008F03DEF08F003EC11F0F0A642EF08F0A5
:1010800044EF08F04DEF08F0F0A049EF08F04BEF07
:1010900008F04DEF08F001EC11F0F0A852EF08F065
:1010A00054EF08F05DEF08F0F0A259EF08F05BEFA5
:1010B00008F05DEF08F0FFEC10F0F2A662EF08F028
:1010C00064EF08F07FEF08F0F2A069EF08F06BEF33
:1010D00008F07FEF08F081A870EF08F072EF08F0D9
:1010E0007FEF08F06D04D8A478EF08F07AEF08F0ED
:1010F0007FEF08F0000E6D6E000EC9EC10F0F2A646
:1011000084EF08F086EF08F0A1EF08F0F2A08BEF73
:1011100008F08DEF08F0A1EF08F081B892EF08F029
:1011200094EF08F0A1EF08F06D50D8A49AEF08F002
:101130009CEF08F0A1EF08F0010E6D6E010EC9ECF6
:1011400010F0F2A6A6EF08F0A8EF08F0C3EF08F041
:10115000F2A0ADEF08F0AFEF08F0C3EF08F081AAFE
:10116000B4EF08F0B6EF08F0C3EF08F06C04D8A4B1
:10117000BCEF08F0BEEF08F0C3EF08F0000E6C6E95
:10118000000EBCEC10F0F2A6C8EF08F0CAEF08F0B1
:10119000E5EF08F0F2A0CFEF08F0D1EF08F0E5EFAF
:1011A00008F081BAD6EF08F0D8EF08F0E5EF08F0C4
:1011B0006C50D8A4DEEF08F0E0EF08F0E5EF08F09F
:1011C000010E6C6E010EBCEC10F0F2A6EAEF08F016
:1011D000ECEF08F007EF09F0F2A0F1EF08F0F3EF01
:1011E00008F007EF09F081ACF8EF08F0FAEF08F02B
:1011F00007EF09F06B04D8A400EF09F002EF09F043
:1012000007EF09F0000E6B6E000EAFEC10F0F2A6C7
:101210000CEF09F00EEF09F029EF09F0F2A013EF3F
:1012200009F015EF09F029EF09F081BC1AEF09F078
:101230001CEF09F029EF09F06B50D8A422EF09F058
:1012400024EF09F029EF09F0010E6B6E010EAFECEF
:1012500010F0F2A62EEF09F030EF09F04BEF09F095
:10126000F2A035EF09F037EF09F04BEF09F081AE4E
:101270003CEF09F03EEF09F04BEF09F06A04D8A407
:1012800044EF09F046EF09F04BEF09F0000E6A6EEB
:10129000000EA2EC10F0F2A650EF09F052EF09F0A8
:1012A0006DEF09F0F2A057EF09F059EF09F06DEF7B
:1012B00009F081BE5EEF09F060EF09F06DEF09F013
:1012C0006A50D8A466EF09F068EF09F06DEF09F0F5
:1012D000010E6A6E010EA2EC10F09DAC72EF09F0E7
:1012E00074EF09F07DEF09F09EAC79EF09F07BEF28
:1012F00009F07DEF09F00BEC11F0F2AA82EF09F092
:1013000084EF09F08DEF09F0F2A489EF09F08BEF7B
:1013100009F08DEF09F0F1EC10F09DA092EF09F0CB
:1013200094EF09F09DEF09F09EA099EF09F09BEF73
:1013300009F09DEF09F0EBEC10F09DA2A2EF09F08F
:10134000A4EF09F0ADEF09F09EA2A9EF09F0ABEF11
:1013500009F0ADEF09F0F7EC10F0A0A2B2EF09F040
:10136000B4EF09F0BDEF09F0A1A2B9EF09F0BBEFAE
:1013700009F0BDEF09F0E5EC10F09DA8C2EF09F00F
:10138000C4EF09F0CDEF09F09EA8C9EF09F0CBEF4B
:1013900009F0CDEF09F005EC11F09DAAD2EF09F0AC
:1013A000D4EF09F0DDEF09F09EAAD9EF09F0DBEFE9
:1013B00009F0DDEF09F00EEC11F09DA6E2EF09F067
:1013C000E4EF09F0EDEF09F09EA6E9EF09F0EBEF8D
:1013D00009F0EDEF09F0FBEC10F0A0A6F2EF09F038
:1013E000F4EF09F0FDEF09F0A1A6F9EF09F0FBEF2A
:1013F00009F0FDEF09F0FDEC10F09DA602EF0AF0F8
:1014000004EF0AF00DEF0AF09EA609EF0AF00BEFC9
:101410000AF00DEF0AF00DEC11F09DA412EF0AF0A6
:1014200014EF0AF01DEF0AF09EA419EF0AF01BEF6B
:101430000AF01DEF0AF009EC11F0A0A022EF0AF06B
:1014400024EF0AF02DEF0AF0A1A029EF0AF02BEF0C
:101450000AF02DEF0AF007EC11F074921100000E63
:101460000001B96F000EBA6F000EBB6F000EBC6FAB
:101470009EC0B5F09FC0B6F0A0C0B7F0A1C0B8F054
:10148000000EBD6F000EBE6F6E0E526E000E536EDC
:1014900081EC10F06E0E596E000E5A6E010E5B6EEE
:1014A000010E5C6E0D0E5D6E100E5E6ED1EC0EF0D8
:1014B0006E0E596E000E5A6E040E5B6E010E5C6E5F
:1014C0004D0E5D6E100E5E6ED1EC0EF0000E000142
:1014D000BF6FEA0E606EC30EE82EFED7602EFCD7FB
:1014E00000F0A20E4A6E000E4B6EB90E0001BF2531
:1014F0004C6E4D6A000E4D22AEEC0CF06E0E596E25
:10150000000E5A6E010E5B6E0001BF51100F5C6E33
:10151000580E5D6E1AEC10F0B50E0001BF25D96EA5
:10152000DA6A000EDA22B90EBF25E16EE26A000E19
:10153000E222DE50E618D8B4A0EF0AF0A2EF0AF0DB
:10154000A4EF0AF0010EBD6FBF2B030EBF65ABEF1A
:101550000AF0ADEF0AF069EF0AF0BD51D8B4B3EF6D
:101560000AF0B5EF0AF0DBEF0AF06E0E526E000ED5
:10157000536E81EC10F06E0E596E000E5A6E010E15
:101580005B6E040E5C6E1D0E5D6E100E5E6ED1EC19
:101590000EF0080E616E9D0E606E060EE82EFED7F0
:1015A000602EFCD7612EFAD7E20E0001C06F1B0E31
:1015B000C16FDFEF0AF0820EC06F1C0EC16F120008
:1015C000010E486E40504110D8B4E9EF0AF0EBEF3D
:1015D0000AF0FCEF0AF040C0D9FF41C0DAFFDF306B
:1015E000E832E832070B426E070E4264FAEF0AF067
:1015F000FCEF0AF05FEF0BF0000E486E80EF0BF08F
:1016000040C0D9FF41C0DAFFDF30E832E832070BD3
:10161000426E010E436E422A10EF0BF0D890433613
:10162000422E0EEF0BF04350FF0A446E40C0D9FF2C
:1016300041C0DAFFDF50070B456E4550020D940E96
:10164000F324D96E000EF420DA6EDECF46F0DDCF43
:1016500047F046C0D9FF47C0DAFF4450DF1680EF9D
:101660000BF040C0D9FF41C0DAFFDF30E832E8328A
:10167000070B426E010E436E422A41EF0BF0D890E9
:101680004336422E3FEF0BF040C0D9FF41C0DAFF96
:10169000DF50070B446E4450020D940EF324D96EB4
:1016A000000EF420DA6EDECF45F0DDCF46F045C007
:1016B000D9FF46C0DAFF4350DF1280EF0BF040C085
:1016C000D9FF41C0DAFFDFBC68EF0BF06BEF0BF026
:1016D000010E6CEF0BF0000E426E436A4350000A9D
:1016E000D8B475EF0BF0FCEF0AF04250000AD8B402
:1016F00000EF0BF0010AD8B431EF0BF0FCEF0AF069
:1017000048501200000E566E52505310D8A48BEF62
:101710000BF08DEF0BF091EF0BF0000E576E16EF04
:101720000CF052C04AF053C04BF07FEC0FF0576EF4
:10173000010E52244A6E000E53204B6E7FEC0FF0C8
:10174000576E000E566E56505224546E000E5320A3
:10175000556E020E54244A6E000E55204B6E7FECDF
:101760000FF0562A030E5664B8EF0BF0BAEF0BF0E9
:10177000A3EF0BF01A0E546EF80EE82EFED7542E7F
:10178000FCD700D052C04EF053C04FF0380E506E10
:1017900046EC0FF0070E546E7D0EE82EFED7542E49
:1017A000FCD700F052C04EF053C04FF0380E506ED0
:1017B00046EC0FF0320EE82EFED752C04EF053C06A
:1017C0004FF0380E506E46EC0FF052C04EF053C042
:1017D0004FF0010E506E46EC0FF052C04EF053C069
:1017E0004FF0020E506E46EC0FF052C04EF053C058
:1017F0004FF0060E506E46EC0FF052C04EF053C044
:101800004FF00C0E506E46EC0FF052C04EF053C02D
:101810004FF0280E506E46EC0FF052C04EF053C001
:101820004FF0800E506E46EC0FF0576E575012007E
:10183000010E496E40504110D8B421EF0CF023EF57
:101840000CF034EF0CF040C0D9FF41C0DAFFDF30BC
:10185000E832E832070B436E070E436432EF0CF0B8
:1018600034EF0CF097EF0CF0000E496EACEF0CF07B
:1018700040C0D9FF41C0DAFFDF30E832E832070B61
:10188000436E010E446E432A48EF0CF0D890443664
:10189000432E46EF0CF04450FF0A456E40C0D9FF7E
:1018A00041C0DAFFDF50070B466E4650020D8A0E2C
:1018B000F324D96E000EF420DA6EDECF47F0DDCFD0
:1018C00048F047C0D9FF48C0DAFF4550DF16ACEFFB
:1018D0000CF040C0D9FF41C0DAFFDF30E832E83217
:1018E000070B436E010E446E432A79EF0CF0D8903B
:1018F0004436432E77EF0CF040C0D9FF41C0DAFFE9
:10190000DF50070B456E4550020D8A0EF324D96E49
:10191000000EF420DA6EDECF46F0DDCF47F046C091
:10192000D9FF47C0DAFF4450DF12ACEF0CF0425051
:10193000436E446A4450000AD8B4A1EF0CF034EF6F
:101940000CF04350000AD8B438EF0CF0010AD8B4B8
:1019500069EF0CF034EF0CF049501200000E536E9A
:10196000000E546E000E526E000E506E4A504B1018
:10197000D8B4BDEF0CF0BFEF0CF0C8EF0CF04C503A
:101980004D10D8A4C6EF0CF0C8EF0CF0CCEF0CF063
:10199000000E516E29EF0DF0000E536E000E526EC8
:1019A00052504A24406E000E4B20416E000E426E93
:1019B00018EC0CF0522A030E5264E1EF0CF0E3EF46
:1019C0000CF0D0EF0CF053504A24406E000E4B2028
:1019D000416E010E426E18EC0CF00D0E4E6EFC0EB8
:1019E000E82EFED74E2EFCD7000E546E54504A24DB
:1019F0004E6E000E4B204F6E040E4E24406E000EB5
:101A00004F20416E500E426E000E436E41EC0DF0C1
:101A1000516E5004D8A40FEF0DF011EF0DF02CEF24
:101A20000DF05350030D010EF3244E6E100EF420F2
:101A30004F6E54504E26000E4F224EC0F6FF4FC040
:101A4000F7FFF86A4CC0D9FF4DC0DAFF0800F5CFA8
:101A5000DFFF515040EF0DF0542A020E546433EF73
:101A60000DF035EF0DF0F6EF0CF0532A030E536432
:101A70003CEF0DF03EEF0DF0CEEF0CF0CCEF0CF0A4
:101A80001200010E496E40504110D8B44AEF0DF0DB
:101A90004CEF0DF066EF0DF042504310D8B453EF09
:101AA0000DF055EF0DF066EF0DF040C0D9FF41C0CD
:101AB000DAFFDF30E832E832070B446E070E446489
:101AC00064EF0DF066EF0DF06AEF0DF0000E496E59
:101AD0009BEF0DF040C0D9FF41C0DAFFDF30E832A4
:101AE000E832070B446E40C0D9FF41C0DAFFDF5037
:101AF000070B456E4550020D800EF324D96E000E83
:101B0000F420DA6EDECF46F0DDCF47F046C0D9FFD5
:101B100047C0DAFFDF50486E442A91EF0DF0D890AD
:101B20004832442E8FEF0DF04850010B42C0D9FFD0
:101B300043C0DAFFDF6E49501200010E586E5506A1
:101B4000D2EF0DF052C04EF053C04FF05550800F01
:101B5000506E46EC0FF0586EEFEF0DF052C04EF0A5
:101B600053C04FF05550C00F506E46EC0FF0586EFA
:101B7000EFEF0DF052C04EF053C04FF05550940FA0
:101B8000506E46EC0FF0586EEFEF0DF052C04EF075
:101B900053C04FF05550D40F506E46EC0FF0586EB6
:101BA000EFEF0DF05450566E576A5750000AD8B4F4
:101BB000DCEF0DF0EFEF0DF05650010AD8B4A2EFB4
:101BC0000DF0030AD8B4AEEF0DF0010AD8B4BAEFA5
:101BD0000DF0070AD8B4C6EF0DF0EFEF0DF0585036
:101BE00012006250D8A4F7EF0DF0F9EF0DF0FFEFFF
:101BF0000DF06E0E526E000E536E81EC10F0000E62
:101C0000606E6E0E596E000E5A6E010E5B6E040E03
:101C10005C6E2C0E5D6E100E5E6ED1EC0EF06E0ED4
:101C2000596E000E5A6E040E5B6E010E5C6E390E1C
:101C30005D6E100E5E6ED1EC0EF0A20E4A6E000EBE
:101C40004B6E600E4C6E000E4D6EAEEC0CF0230E23
:101C50006018D8A42EEF0EF030EF0EF039EF0EF032
:101C60005E0E0001C06F140EC16F000E626E40EF79
:101C70000EF0E20E0001C06F1B0EC16F010E626E0E
:101C800012006250D8A447EF0EF049EF0EF04FEF6C
:101C90000EF06E0E526E000E536E81EC10F0000EC0
:101CA000606E6E0E596E000E5A6E010E5B6E040E63
:101CB0005C6E440E5D6E100E5E6ED1EC0EF06E0E1C
:101CC000596E000E5A6E040E5B6E010E5C6E4D0E68
:101CD0005D6E100E5E6ED1EC0EF0A20E4A6E000E1E
:101CE0004B6E600E4C6E000E4D6EAEEC0CF02A0E7C
:101CF0006018D8A47EEF0EF080EF0EF089EF0EF0A2
:101D0000E20E0001C06F1B0EC16F000E626E90EFFD
:101D10000EF0820E0001C06F1C0EC16F010E626ECC
:101D20001200000E536E000E546E4E504F10D8A489
:101D30009CEF0EF09EEF0EF0A2EF0EF0000E526E32
:101D4000CFEF0EF0000E536E53504E244A6E000E2D
:101D50004F204B6E7FEC0FF0532A030E5364B3EF0A
:101D60000EF0B5EF0EF0A4EF0EF0000E546E5450CE
:101D70004E24506E000E4F20516E040E5024406EC3
:101D8000000E5120416EE0EC0AF0526E542A020E11
:101D90005464CDEF0EF0CFEF0EF0B7EF0EF05250CF
:101DA000120059505A10D8A4D8EF0EF0DAEF0EF006
:101DB000DEEF0EF0000E5F6E0BEF0FF059C052F029
:101DC0005AC053F05BC054F05CC055F09DEC0DF070
:101DD0005F6EFCEF0EF059C04EF05AC04FF05DC080
:101DE000F6FF5EC0F7FFF86A0800F5CF50F00DEC83
:101DF0000FF05F6E5D4A5E2A5DC0F6FF5EC0F7FFC2
:101E0000F86A0800F5500009D8A409EF0FF00BEFAD
:101E10000FF0EBEF0EF05F5012004E504F10D8A4B1
:101E200014EF0FF016EF0FF01AEF0FF0000E516ED7
:101E300044EF0FF04EC040F04FC041F0010E426E33
:101E400018EC0CF0516E4EC04AF04FC04BF05038B9
:101E50000F0B4C6EB5EC0FF0516E4EC04AF04FC0F8
:101E60004BF03DEC10F0516E4EC04AF04FC04BF0BD
:101E700050C04CF0B5EC0FF0516E4EC04AF04FC060
:101E80004BF03DEC10F0516E515012004E504F107F
:101E9000D8A44DEF0FF04FEF0FF053EF0FF0000EFF
:101EA000516E7DEF0FF04EC040F04FC041F0000E7C
:101EB000426E18EC0CF0516E4EC04AF04FC04BF021
:101EC00050380F0B4C6EB5EC0FF0516E4EC04AF00F
:101ED0004FC04BF03DEC10F0516E4EC04AF04FC079
:101EE0004BF050C04CF0B5EC0FF0516E4EC04AF0C4
:101EF0004FC04BF03DEC10F0516E515012004A5063
:101F00004B10D8B486EF0FF088EF0FF099EF0FF079
:101F10004AC0D9FF4BC0DAFFDF30E832E832070BA6
:101F20004C6E070E4C6497EF0FF099EF0FF09DEF9A
:101F30000FF0000E4D6EB3EF0FF04AC040F04BC0F3
:101F400041F0E0EC0AF04D6E4AC040F04BC041F069
:101F50004AC0D9FF4BC0DAFF000EDFBE010E426E51
:101F600018EC0CF04D6E4D501200020E4A24406EDB
:101F7000000E4B20416E4C50010B426E18EC0CF0E1
:101F8000030E4A24406E000E4B20416ED8904C3018
:101F9000010B426E18EC0CF0040E4A24406E000E49
:101FA0004B20416E4C40E8423F0B010B426E18EC57
:101FB0000CF0050E4A24406E000E4B20416E4C384A
:101FC000E8461F0B010B426E18EC0CF04D6E4D50A5
:101FD0001200D80EF66E200EF76E000EF86E00EEB0
:101FE00080F010EE29F00900F5CFEEFFE550E1504A
:101FF000FAE1AC0EF66E210EF76E000EF86E00EEF2
:1020000062F010EE12F00900F5CFEEFFE550E1505E
:10201000FAE100EEA9F00C0EEE6AE806FDE100EE32
:1020200001F03E0EEE6AE806FDE174907492000144
:10203000DFEF10F059505A10D8A421EF10F023EF21
:1020400010F027EF10F0000E5E6E3BEF10F059C05D
:1020500052F05AC053F05BC054F05CC055F09DEC98
:102060000DF05E6E59C04EF05AC04FF05DC050F09A
:102070000DEC0FF05E6E5E501200010E4A24406EB1
:10208000000E4B20416E010E426E18EC0CF000D099
:1020900000D000F0010E4A24406E000E4B20416E2D
:1020A000000E426E18EC0CF04C6E4C501200E20E1A
:1020B0000001C06F1B0EC16F02D869EF10F0050060
:1020C000FA6E0001C051FD6EC151FE6EFF6AFA50FA
:1020D00012005CEF10F01200800F810F820F830F4F
:1020E000840F890F8A0F8B0F8C0F8D0F920F930F18
:1020F000940F950F960F333532341B232B33434BFC
:01210000538B
:1021020052505310D8A488EF10F08AEF10F08CEFE1
:1021120010F094EF10F052C04EF053C04FF0010E89
:10212200506E46EC0FF012006E0E526E000E536EA1
:1021320082EC0BF0A20E4E6E000E4F6E91EC0EF082
:1021420012003F6EF2903F50D8A4AAEF10F0ACEF0D
:1021520010F0AEEF10F0AEEF10F012003F6EF29002
:102162003F50D8A4B7EF10F0B9EF10F0BBEF10F06A
:10217200BBEF10F012003F6EF2903F50D8A4C4EFB4
:1021820010F0C6EF10F0C8EF10F0C8EF10F0120018
:102192003F6EF2903F50D8A4D1EF10F0D3EF10F081
:1021A200D5EF10F0D5EF10F0120001685A622A1A2A
:1021B200622A01010101020A121A222A95EC10F088
:1021C20057EC10F007EF00F0A1920A50B36E09C06D
:1021D200B2FF12009E901050CF6E0FC0CEFF1200C1
:1021E200F2941450D76E13C0D6FF12009E9237C0DD
:1021F200CCFF12009E961200A1961200F0921200DD
:10220200F0901200F29212009D981200A19012001A
:0C2212009E9412009E9C1200120012000C
:020000040020DA
:08000000FFFFFFFFFFFFFFFF00
:020000040030CA
:0E000000FF020912FF8181FF0FC00FE00F40C9
:00000001FF
