:0400000007EF00F016
:10000800288209ED00F03CEF00F00600F2A80FEF9F
:1000180000F011EF00F01AEF00F0F2A216EF00F076
:1000280018EF00F01AEF00F070EC00F0F0A61FEFE8
:1000380000F021EF00F02AEF00F0F0A026EF00F02A
:1000480028EF00F02AEF00F06EEC00F0F0A82FEF98
:1000580000F031EF00F03AEF00F0F0A236EF00F0D8
:1000680038EF00F03AEF00F06CEC00F02892110045
:10007800B20EF66E000EF76E000EF86E00EE01F08E
:1000880010EE21F00900F5CFEEFFE550E150FAE15E
:10009800276A266A256A246A236A226A289028928F
:1000A800000EF86E00016AEF00F0800F810F820FDA
:1000B800830F840F890F8A0F8B0F8C0F8D0F920F70
:0B00C800930F940F950F960F514941C4
:1000D40007EF00F0F0921200F0901200F29212007A
:020000040020DA
:08000000FFFFFFFFFFFFFFFF00
:020000040030CA
:0E000000FF021F1FFF8185FF0FC00FE00F40A2
:00000001FF
