:0400000033EF00F0EA
:060008005B825BED02F0DB
:100018005B80E0CF17F0F0A614EF00F016EF00F0C9
:100028001FEF00F0F0A01BEF00F01DEF00F01FEF36
:1000380000F03FEC04F0F0A824EF00F026EF00F009
:100048002FEF00F0F0A22BEF00F02DEF00F02FEFD4
:1000580000F03DEC04F017C0E0FF5B901000E0EF0B
:1000680003F0010E206E18501910D8B43EEF00F0BE
:1000780040EF00F051EF00F018C0D9FF19C0DAFFC7
:10008800DF30E832E832070B1A6E070E1A644FEFBA
:1000980000F051EF00F0B4EF00F0000E206ED5EF45
:1000A80000F018C0D9FF19C0DAFFDF30E832E832B3
:1000B800070B1A6E010E1B6E1A2A65EF00F0D89016
:1000C8001B361A2E63EF00F01B50FF0A1C6E18C077
:1000D800D9FF19C0DAFFDF50070B1D6E1D50020D46
:1000E800400EF324D96E000EF420DA6EDECF1EF037
:1000F800DDCF1FF01EC0D9FF1FC0DAFF1C50DF166E
:10010800D5EF00F018C0D9FF19C0DAFFDF30E832A8
:10011800E832070B1A6E010E1B6E1A2A96EF00F0D2
:10012800D8901B361A2E94EF00F018C0D9FF19C0CA
:10013800DAFFDF50070B1C6E1C50020D400EF32433
:10014800D96E000EF420DA6EDECF1DF0DDCF1EF082
:100158001DC0D9FF1EC0DAFF1B50DF12D5EF00F01B
:1001680018C0D9FF19C0DAFFDFBCBDEF00F0C0EF3F
:1001780000F0010EC1EF00F0000E1A6E1B6A1B5052
:10018800000AD8B4CAEF00F051EF00F01A50000A84
:10019800D8B455EF00F0010AD8B486EF00F051EF5B
:1001A80000F020501200010E216E18501910D8B41A
:1001B800E0EF00F0E2EF00F0F3EF00F018C0D9FF35
:1001C80019C0DAFFDF30E832E832070B1B6E070E82
:1001D8001B64F1EF00F0F3EF00F056EF01F0000EB2
:1001E800216E6BEF01F018C0D9FF19C0DAFFDF30BC
:1001F800E832E832070B1B6E010E1C6E1B2A07EF54
:1002080001F0D8901C361B2E05EF01F01C50FF0A98
:100218001D6E18C0D9FF19C0DAFFDF50070B1E6E1C
:100228001E50020D360EF324D96E000EF420DA6E3D
:10023800DECF1FF0DDCF20F01FC0D9FF20C0DAFFCE
:100248001D50DF166BEF01F018C0D9FF19C0DAFF97
:10025800DF30E832E832070B1B6E010E1C6E1B2ADA
:1002680038EF01F0D8901C361B2E36EF01F018C07D
:10027800D9FF19C0DAFFDF50070B1D6E1D50020DA4
:10028800360EF324D96E000EF420DA6EDECF1EF09F
:10029800DDCF1FF01EC0D9FF1FC0DAFF1C50DF12D0
:1002A8006BEF01F01A501B6E1C6A1C50000AD8B480
:1002B80060EF01F0F3EF00F01B50000AD8B4F7EF3D
:1002C80000F0010AD8B428EF01F0F3EF00F0215054
:1002D8001200010E096E01500210D8B476EF01F039
:1002E80078EF01F089EF01F001C0D9FF02C0DAFF11
:1002F800DF30E832E832070B036E070E036487EF3E
:1003080001F089EF01F08DEF01F0000E096EBCEFEE
:1003180001F001C0D9FF02C0DAFFDF30E832E8326D
:10032800070B036E010E046E032A9DEF01F0D890AF
:100338000436032E9BEF01F00450FF0A056E01C03E
:10034800D9FF02C0DAFFDF50070B066E0650020D18
:10035800360EF324D96E000EF420DA6EDECF07F0E5
:10036800DDCF08F007C0D9FF08C0DAFF0550DF1657
:1003780009501200010E296E26C0D9FF27C0DAFFE6
:10038800DF50070B286E050E2860CDEF01F0CFEF88
:1003980001F0E0EF01F026C0D9FF27C0DAFFDF3017
:1003A800E832E832070B286E070E2864DEEF01F00A
:1003B800E0EF01F0E4EF01F0000E296E0BEF02F020
:1003C8005AC02AF026C0D9FF27C0DAFFDF50070B32
:1003D800286E2A502818F80B28182A6E26C0D9FF2C
:1003E80027C0DAFFDF30E832E832070B286E2846EC
:1003F800284628462A502818C70B28182A6E2A9CEF
:100408002A9E2A0E226E000E236EADEC03F02950B0
:100418001200010E086E01500210D8B416EF02F057
:1004280018EF02F029EF02F001C0D9FF02C0DAFF8D
:10043800DF30E832E832070B036E070E036427EF5C
:1004480002F029EF02F02DEF02F0000E086E59EFCE
:1004580002F001C0D9FF02C0DAFFDF30E832E8322B
:10046800070B036E010E046E032A3DEF02F0D890CD
:100478000436032E3BEF02F001C0D9FF02C0DAFFB9
:10048800DF50070B056E0550020D360EF324D96EAA
:10049800000EF420DA6EDECF06F0DDCF07F006C0DE
:1004A800D9FF07C0DAFF0450DF1208501200060017
:1004B800FACF11F0FBCF12F0D9CF13F0DACF14F046
:1004C800F3CF15F0F4CF16F0F2A86DEF02F06FEF4E
:1004D80002F078EF02F0F2A274EF02F076EF02F089
:1004E80078EF02F0FDEC03F0F0A67DEF02F07FEF6D
:1004F80002F088EF02F0F0A084EF02F086EF02F03D
:1005080088EF02F043EC04F0F0A88DEF02F08FEFD3
:1005180002F098EF02F0F0A294EF02F096EF02F0EA
:1005280098EF02F041EC04F016C0F4FF15C0F3FF99
:1005380014C0DAFF13C0D9FF12C0FBFF11C0FAFFC5
:100548005B92110009C0D9FF0AC0DAFFDF50070B20
:100558000B6E050E0B60B3EF02F0B5EF02F0C6EFBD
:1005680002F009C0D9FF0AC0DAFFDF30E832E8320A
:10057800070B0B6E070E0B64C4EF02F0C6EF02F018
:10058800C8EF02F0EFEF02F059C00CF009C0D9FF34
:100598000AC0DAFFDF50070B0B6E0C500B18F80B74
:1005A8000B180C6E09C0D9FF0AC0DAFFDF30E83239
:1005B800E832070B0B6E0B460B460B460C500B181C
:1005C800C70B0B180C6E0C9C0C9E0C0E016E000ECB
:1005D800026E0DEC02F012000AC0D9FF0BC0DAFF60
:1005E800DF50070B0C6E050E0C60FDEF02F0FFEFFD
:1005F80002F010EF03F00AC0D9FF0BC0DAFFDF30BA
:10060800E832E832070B0C6E070E0C640EEF03F0AD
:1006180010EF03F012EF03F039EF03F058C00DF0BC
:100628000AC0D9FF0BC0DAFFDF50070B0C6E0D5064
:100638000C18F80B0C180D6E0AC0D9FF0BC0DAFFA6
:10064800DF30E832E832070B0C6E0C460C460C46DD
:100658000D500C18C70B0C180D6E0D9C0D9E0D0E31
:10066800016E000E026E6DEC01F01200000E106EAD
:1006780061EF03F0510E096E000E0A6EA6EC02F04F
:10068800030E0F6E8A0E0E6E560EE82EFED70E2E35
:10069800FCD70F2EFAD7510E0A6E000E0B6EF0EC37
:1006A80002F0030E0F6E8A0E0E6E560EE82EFED75F
:1006B8000E2EFCD70F2EFAD7102A10504A5CD8B04D
:1006C80068EF03F06AEF03F03EEF03F0090E4A64A7
:1006D80070EF03F072EF03F076EF03F0010E4A6E4D
:1006E80077EF03F04A2A120021502210D8A47FEF96
:1006F80003F081EF03F085EF03F0000E246EABEFFB
:1007080003F0F298F2924DC025F0250E186E000EF7
:10071800196E35EC00F0246E20EE02F02150D92637
:100728002250DA22DF50236E233A23462346F15023
:100738002318BF0B2318F16E21C0D9FF22C0DAFF9E
:10074800DECF56F0DDCF57F0D08EF28EF2882450EF
:10075800120022502310D8B4B4EF03F0B6EF03F020
:10076800C7EF03F022C0D9FF23C0DAFFDF30E83239
:10077800E832070B246E070E2464C5EF03F0C7EFB9
:1007880003F0C9EF03F0DFEF03F022C018F023C035
:1007980019F035EC00F0256E22C018F023C019F0CE
:1007A80022C0D9FF23C0DAFF000EDFBE010E1A6E89
:1007B800D7EC00F0256E12002A0EF66E080EF76EC2
:1007C800000EF86E00EE2CF010EE26F00900F5CFC2
:1007D800EEFFE550E150FAE100EE52F0090EEE6A44
:1007E800E806FDE15B905B92000EF86E000137EFC2
:1007F80004F0F29256505710D8B405EF04F007EF02
:1008080004F014EF04F002D814EF04F00500FA6EB7
:100818005650FD6E5750FE6EF850FF6EFA5012009B
:100828001200800F810F820F830F840F890F8A0FA8
:100838008B0F8C0F8D0F920F930F940F950F960FB0
:100848000151494174060103510E266E000E276EB0
:10085800BEEC01F04E0E216E000E226E78EC03F015
:100868002B6E2B50120028EC04F039EF04F033EF14
:1008780000F0F0921200F0901200F0921200F09046
:0208880012005C
:020000040020DA
:08000000FFFFFFFFFFFFFFFF00
:020000040030CA
:0E000000FF021F1FFF8185FF0FC00FE00F40A2
:00000001FF
